:100000000C9434000C9451000C9451000C94530047
:100010000C9451000C9451000C9451000C9451001C
:100020000C9451000C9451000C9451000C9451000C
:100030000C9451000C9451000C9451000C945100FC
:100040000C9451000C9451000C947C040C94B30457
:100050000C9451000C9451000C9451000C945100DC
:100060000C9451000C94510011241FBECFEFD8E026
:10007000DEBFCDBF11E0A0E0B1E0E4E4FFE002C0EC
:1000800005900D92AC38B107D9F721E0ACE8B1E0AA
:1000900001C01D92A63DB207E1F70E9480000C94BA
:1000A000A0070C9400001F920F9200905F000F9227
:1000B00011242F933F934F935F936F937F938F936D
:1000C0009F93AF93BF93EF93FF93CF93DF93CDB7FE
:1000D000DEB70E94D7020000DF91CF91FF91EF9130
:1000E000BF91AF919F918F917F916F915F914F9150
:1000F0003F912F910F9000925F000F901F901895E5
:10010000CF93DF93CDB7DEB7AD970FB6F894DEBFD0
:100110000FBECDBF87E690E00E944E0484E290E0DF
:1001200024E230E0F90120812062FC01208385E295
:1001300090E025E230E0F90120812F7DFC01208351
:100140008BE690E02BE630E0F90120812068FC018D
:10015000208388E690E028E630E0F90120812160E4
:10016000FC012083789484E290E024E230E0F901FD
:1001700020812860FC01208384E290E024E230E0CA
:10018000F90120812F77FC0120831A82198281E0F6
:100190008093060181E08093070182E0809308014B
:1001A00082E08093090181E08093D00182E0809316
:1001B000D10183E08093D20184E08093D30180ED6C
:1001C00091E00E9482039093D5018093D40180E353
:1001D0008B8389819A8101969A83898389819A8107
:1001E0000E94320780E090E0A8E4B2E48887998713
:1001F000AA87BB8720E030E04AE755E46885798527
:100200008A859B850E942406DC01CB018A8F9B8F07
:10021000AC8FBD8F20E030E040E85FE36A8D7B8DDE
:100220008C8D9D8D0E949E0588232CF481E090E0AA
:100230009F8F8E8F3FC020E03FEF4FE757E46A8DDE
:100240007B8D8C8D9D8D0E941F0618164CF520E02D
:1002500030E040E251E4688579858A859B850E947B
:100260002406DC01CB01BC01CD010E94A305DC0109
:10027000CB019F8F8E8F0FC080E991E099A388A357
:1002800088A199A10197F1F799A388A38E8D9F8DDD
:1002900001979F8F8E8F8E8D9F8D892B69F714C04C
:1002A0006A8D7B8D8C8D9D8D0E94A305DC01CB0119
:1002B0009F8F8E8F8E8D9F8D9BA38AA38AA19BA1DA
:1002C0000197F1F79BA38AA386E091E00E940703C0
:1002D00080ED91E00E9407038091D401805D8B83C3
:1002E0008B810E9416058091D501805D8B838B8167
:1002F0000E94160580E090E0A8ECB2E48C879D8710
:10030000AE87BF8720E030E04AE755E46C857D8505
:100310008E859F850E942406DC01CB01888B998BFA
:10032000AA8BBB8B20E030E040E85FE368897989E5
:100330008A899B890E949E0588232CF481E090E0A5
:100340009D8B8C8B3FC020E03FEF4FE757E46889DF
:1003500079898A899B890E941F0618164CF520E02E
:1003600030E040E251E46C857D858E859F850E945A
:100370002406DC01CB01BC01CD010E94A305DC01F8
:10038000CB019D8B8C8B0FC080E991E09F8B8E8B76
:100390008E899F890197F1F79F8B8E8B8C899D8920
:1003A00001979D8B8C8B8C899D89892B69F714C053
:1003B000688979898A899B890E94A305DC01CB0120
:1003C0009D8B8C8B8C899D89998F888F888D998D39
:1003D0000197F1F7998F888F80ED91E00E94820359
:1003E0009093D5018093D4018091040190910501EF
:1003F000892B09F49BC08091D401843009F084C01A
:1004000085E290E025E230E0F90120812062FC01E4
:1004100020838AE091E00E947F0580E090E0A8ECD4
:10042000B2E48C839D83AE83BF8320E030E04AE753
:1004300055E46C817D818E819F810E942406DC01C0
:10044000CB018CA39DA3AEA3BFA320E030E040E886
:100450005FE36CA17DA18EA19FA10E949E058823D0
:100460002CF481E090E099A788A73FC020E03FEFFF
:100470004FE757E46CA17DA18EA19FA10E941F06AA
:1004800018164CF520E030E040E251E46C817D81AB
:100490008E819F810E942406DC01CB01BC01CD012D
:1004A0000E94A305DC01CB0199A788A70FC080E9B2
:1004B00091E09BA78AA78AA59BA50197F1F79BA727
:1004C0008AA788A599A5019799A788A788A599A51E
:1004D000892B69F714C06CA17DA18EA19FA10E94F8
:1004E000A305DC01CB0199A788A788A599A59DA79D
:1004F0008CA78CA59DA50197F1F79DA78CA782E2FB
:1005000091E00E947F05FFCF87E491E00E947F0584
:100510000E9433038093D0018091040190910501E2
:100520000197909305018093040108C089E591E04B
:100530000E947F0589E691E00E947F0580ED91E0B1
:100540000E9482039093D5018093D40140CECF9333
:10055000DF93CDB7DEB70E942D0726E030E0B9016A
:100560000E94B9068F5F809306010E942D0726E046
:1005700030E0B9010E94B9068F5F809307010E94A5
:100580002D0726E030E0B9010E94B9068F5F809305
:1005900008010E942D0726E030E0B9010E94B9064B
:1005A0008F5F809309010000DF91CF910895CF9371
:1005B000DF93CDB7DEB783E290E023E230E0F901CC
:1005C00020812860FC01208383E290E0FC0180818F
:1005D0008823CCF00E94A70286E091E00E945B0392
:1005E0008CE090E090930501809304011092D50176
:1005F0001092D40185E290E025E230E0F9012081FB
:100600002F7DFC0120830000DF91CF910895CF93CF
:10061000DF9300D01F92CDB7DEB79B838A83198208
:1006200018C08981882F90E02A813B81820F931F17
:10063000FC018081805D0E9416058981882F90E0F1
:100640002A813B81820F931FFC01108289818F5F79
:1006500089838981843028F300000F900F900F90D8
:10066000DF91CF910895CF93DF9300D000D01F92F8
:10067000CDB7DEB7CE0102960E94410519820EC0A9
:100680008981882F90E09E012E5F3F4F820F931F3C
:1006900020E3FC01208389818F5F898389818430F5
:1006A00078F380E090E00F900F900F900F900F90F4
:1006B000DF91CF910895CF93DF9300D01F92CDB7F4
:1006C000DEB79B838A83198213C08981882F90E0CB
:1006D0002981222F30E04A815B81240F351FF901E7
:1006E00020818A5F9E4FFC01208389818F5F8983EF
:1006F0008981843050F300000F900F900F90DF91AC
:10070000CF910895CF93DF93CDB7DEB760970FB643
:10071000F894DEBF0FBECDBF988B8F871D821E82DF
:10072000198227C08981882F90E02981222F30E00B
:100730002A5F3E4FF90140819E01295F3F4F820FA2
:10074000931FFC0140838981882F90E02981222F0B
:1007500030E04F855889240F351FF90140819E01F3
:10076000255F3F4F820F931FFC01408389818F5F7C
:10077000898389818430B0F21A8231C08A81882FBE
:1007800090E02F853889820F931FFC0140818A8178
:10079000882F90E09E01295F3F4F820F931FFC013D
:1007A00080814817C9F48A81882F90E09E01295FD3
:1007B0003F4F820F931F2FEFFC0120838A81882FE8
:1007C00090E09E01255F3F4F820F931F2FEFFC01AA
:1007D00020838D818F5F8D838A818F5F8A838A8159
:1007E000843060F21B824BC08B81882F90E09E0189
:1007F000255F3F4F820F931FFC0180818F3FE1F106
:100800001C8237C08C81882F90E09E01295F3F4F6A
:10081000820F931FFC0180818F3F41F18C81882FD3
:1008200090E09E01295F3F4F820F931FFC014081A2
:100830008B81882F90E02F853889820F931FFC01D0
:100840008081481799F49C818B81981779F08C816D
:10085000882F90E09E01295F3F4F820F931F2FEF5B
:10086000FC0120838E818F5F8E8306C08C818F5F19
:100870008C838C81843030F28B818F5F8B838B8172
:10088000843008F4B1CF8D819E8160960FB6F894C4
:10089000DEBF0FBECDBFDF91CF910895CF93DF9321
:1008A00000D01F92CDB7DEB79B838A8385EC90E0A2
:1008B0002A813B81232F3327FC01208384EC90E0A5
:1008C0002A81FC01208381EC90E028E9FC0120834F
:1008D000198289818093AD0189818093AC018981DE
:1008E0008093CF0189818093CE0100000F900F90FB
:1008F0000F90DF91CF9108951F920F9200905F00AB
:100900000F9211242F938F939F93EF93FF93CF9385
:10091000DF9300D0CDB7DEB786EC90E0FC0180819C
:1009200089838091AC018F5F8F718A838A818093E4
:10093000AC018091AD018A81882F90E084579E4F51
:100940002981FC01208300000F900F90DF91CF914F
:10095000FF91EF919F918F912F910F9000925F00E7
:100960000F901F9018951F920F9200905F000F92AA
:1009700011242F933F938F939F93EF93FF93CF93E4
:10098000DF931F92CDB7DEB79091CE018091CF015A
:100990009817A1F08091CF018F5F8F718983898132
:1009A0008093CF0186EC90E02981222F30E0225500
:1009B0003E4FF9012081FC01208309C081EC90E0C9
:1009C00021EC30E0F90120812F7DFC012083000023
:1009D0000F90DF91CF91FF91EF919F918F913F9178
:1009E0002F910F9000925F000F901F901895CF935A
:1009F000DF931F92CDB7DEB700009091AC018091DC
:100A0000AD019817D1F38091AD018F5F8F7189830C
:100A100089818093AD018981882F90E084579E4F12
:100A2000FC0180810F90DF91CF910895CF93DF93E8
:100A300000D0CDB7DEB78A838091CE018F5F8F71F2
:100A4000898300008091CF0199819817D9F389811A
:100A5000882F90E082559E4F2A81FC012083898156
:100A60008093CE0181EC90E021EC30E0F90120810F
:100A70002062FC01208300000F900F90DF91CF9146
:100A800008950F931F93CF93DF9300D01F92CDB79C
:100A9000DEB79B838A83198203C089818F5F898334
:100AA0008981882F90E02A813B818901080F191FD5
:100AB0000E94F704F8018083F80180818A3069F789
:100AC000898191E0980F9983882F90E02A813B815A
:100AD000820F931F2AE0FC0120838981882F90E0F8
:100AE0002A813B81820F931FFC01108200000F902E
:100AF0000F900F90DF91CF911F910F910895CF9399
:100B0000DF9300D0CDB7DEB79A8389830BC089818C
:100B10009A819C012F5F3F4F3A832983FC0180819A
:100B20000E94160589819A81FC018081882379F7CA
:100B300000000F900F90DF91CF9108950E94D20591
:100B400008F481E008950E94FE0588F09F5798F010
:100B5000B92F9927B751B0F0E1F0660F771F881FC2
:100B6000991F1AF0BA95C9F714C0B13091F00E94DC
:100B70001806B1E008950C941806672F782F88277F
:100B8000B85F39F0B93FCCF3869577956795B39503
:100B9000D9F73EF490958095709561957F4F8F4F72
:100BA0009F4F0895990F0008550FAA0BE0E8FEEF3C
:100BB00016161706E807F907C0F012161306E40721
:100BC000F50798F0621B730B840B950B39F40A261A
:100BD00061F0232B242B252B21F408950A2609F4F8
:100BE000A140A6958FEF811D811D089557FD905856
:100BF000440F551F59F05F3F71F04795880F97FBE1
:100C0000991F61F09F3F79F087950895121613069A
:100C10001406551FF2CF4695F1DF08C016161706C9
:100C20001806991FF1CF86957105610508940895FE
:100C3000E894BB2766277727CB0197F908950E9490
:100C4000D20508F48FEF08950E9437060C94A80689
:100C50000E949A0638F00E94A10620F0952311F018
:100C60000C9491060C94970611240C9419060E947A
:100C7000F60570F3959FC1F3950F50E0551F629FE5
:100C8000F001729FBB27F00DB11D639FAA27F00DE5
:100C9000B11DAA1F649F6627B00DA11D661F829F0C
:100CA0002227B00DA11D621F739FB00DA11D621FF1
:100CB000839FA00D611D221F749F3327A00D611D0E
:100CC000231F849F600D211D822F762F6A2F1124F0
:100CD0009F5750409AF0F1F088234AF0EE0FFF1F23
:100CE000BB1F661F771F881F91505040A9F79E3F7A
:100CF000510580F00C9491060C9419065F3FE4F3C3
:100D0000983ED4F3869577956795B795F795E795CF
:100D10009F5FC1F7FE2B880F911D9695879597F9D8
:100D2000089597F99F6780E870E060E008959FEF6D
:100D300080EC089500240A94161617061806090672
:100D4000089500240A941216130614060506089541
:100D5000092E0394000C11F4882352F0BB0F40F4C9
:100D6000BF2B11F460FF04C06F5F7F4F8F4F9F4F09
:100D7000089597FB072E16F4009407D077FD09D04D
:100D80000E94CD0607FC05D03EF4909581959F4FBB
:100D90000895709561957F4F0895AA1BBB1B51E183
:100DA00007C0AA1FBB1FA617B70710F0A61BB70BDB
:100DB000881F991F5A95A9F780959095BC01CD0180
:100DC00008958F929F92AF92BF92CF92DF92EF924F
:100DD000FF92CF93DF93EC01688179818A819B81B7
:100DE000611571058105910521F464E279ED8BE5CA
:100DF00097E02DE133EF41E050E00E943D074901CB
:100E00005A019B01AC01A7EAB1E40E945C076B01A7
:100E10007C01ACEEB4EFA50194010E946A07DC01ED
:100E2000CB018C0D9D1DAE1DBF1DB7FF03C00197EB
:100E3000A109B04888839983AA83BB839F77DF91F8
:100E4000CF91FF90EF90DF90CF90BF90AF909F90A9
:100E50008F9008950E94E106089580E091E00E943D
:100E6000E1060895A0E0B0E08093000190930101B5
:100E7000A0930201B09303010895052E97FB1EF481
:100E800000940E94540757FD07D00E946F0707FC8B
:100E900003D04EF40C94540750954095309521950D
:100EA0003F4F4F4F5F4F0895909580957095619596
:100EB0007F4F8F4F9F4F08950E949107A59F900DE0
:100EC000B49F900DA49F800D911D11240895B7FF2C
:100ED0000C945C070E945C07821B930B0895A1E2AF
:100EE0001A2EAA1BBB1BFD010DC0AA1FBB1FEE1FA4
:100EF000FF1FA217B307E407F50720F0A21BB30BEF
:100F0000E40BF50B661F771F881F991F1A9469F76A
:100F100060957095809590959B01AC01BD01CF01C6
:100F20000895A29FB001B39FC001A39F700D811DC2
:100F30001124911DB29F700D811D1124911D0895E2
:040F4000F894FFCF53
:100F4400010000000C00FF000000596F7520617261
:100F540065206D79204D61737465726D696E640DE1
:100F64000A0050726573732074686520737769741E
:100F7400636820746F2072657365742074686520DB
:100F840067616D650D0A00456E74657220796F7531
:100F94007220636F64650D0A00596F75206861766D
:100FA40065206C6F73740D0A00507265737320743E
:100FB40068652073776974636820746F2072657341
:0C0FC4006574207468652067616D65002D
:00000001FF
