:100000000C9434000C9451000C9451000C94730027
:100010000C9451000C9451000C9451000C9451001C
:100020000C9451000C9451000C9451000C9451000C
:100030000C9451000C9451000C9451000C945100FC
:100040000C9453000C9451000C94D3040C940A05A6
:100050000C9451000C9451000C9451000C945100DC
:100060000C9451000C94510011241FBECFEFD8E026
:10007000DEBFCDBF11E0A0E0B1E0E2EFFFE002C0E3
:1000800005900D92A838B107D9F721E0A8E8B1E0B2
:1000900001C01D92A53DB207E1F70E94C4000C9477
:1000A000F7070C9400001F920F9200905F000F92D0
:1000B00011248F939F93CF93DF93CDB7DEB78091B9
:1000C000880190918901019690938901809388011C
:1000D0000000DF91CF919F918F910F9000925F0070
:1000E0000F901F9018951F920F9200905F000F9233
:1000F00011242F933F934F935F936F937F938F932D
:100100009F93AF93BF93EF93FF93CF93DF93CDB7BD
:10011000DEB783E290E023E230E0F901208128603D
:10012000FC01208383E290E0FC0180818823BCF005
:100130000E94800386E091E00E94B2038CE090E090
:10014000909305018093040110928A0185E290E06A
:1001500025E230E0F90120812F7DFC0120830000A1
:10016000DF91CF91FF91EF91BF91AF919F918F91CF
:100170007F916F915F914F913F912F910F900092DE
:100180005F000F901F901895CF93DF93CDB7DEB728
:10019000E9970FB6F894DEBF0FBECDBF87E690E0BB
:1001A0000E94A50484E290E024E230E0F90120817D
:1001B0002062FC01208385E290E025E230E0F90135
:1001C00020812F7DFC0120838BE690E02BE630E040
:1001D000F90120812068FC01208388E690E028E670
:1001E00030E0F90120812160FC012083789485E4CE
:1001F00090E025E430E0F90120812160FC012083BA
:1002000085E490E025E430E0F90120812460FC01E0
:1002100020838EE690E02EE630E0F9012081216017
:10022000FC01208384E290E024E230E0F9012081A7
:100230002860FC01208384E290E024E230E0F901B0
:1002400020812F77FC01208381E38093060181E3E5
:100250008093070182E38093080182E38093090180
:1002600010920A0181E38093CF0182E38093D00151
:1002700083E38093D10184E38093D2011092D30170
:100280008FEC91E00E94D9039093D4018093D30125
:1002900080E3898380918801909189010E94890778
:1002A0001092D30186E091E00E94D6058FEC91E098
:1002B0000E94D6058FEC91E00E94D9039093D4015F
:1002C0008093D3018091D301805D898389810E94CD
:1002D0006D058091D401805D898389810E946D05BF
:1002E0008091040190910501892B09F400C280914D
:1002F000D301843009F0E9C185E290E025E230E0E5
:10030000F90120812062FC01208380E090E0A8ECCC
:10031000B2E48A839B83AC83BD8320E030E04AE76C
:1003200055E46A817B818C819D810E947B06DC0182
:10033000CB0188AB99ABAAABBBAB20E030E040E887
:100340005FE368A979A98AA99BA90E94F50588237A
:100350002CF481E090E09DAB8CAB3FC020E03FEF00
:100360004FE757E468A979A98AA99BA90E94760654
:1003700018164CF520E030E040E251E46A817B81C0
:100380008C819D810E947B06DC01CB01BC01CD01EB
:100390000E94FA05DC01CB019DAB8CAB0FC080E95C
:1003A00091E09FAB8EAB8EA99FA90197F1F79FAB10
:1003B0008EAB8CA99DA901979DAB8CAB8CA99DA9F7
:1003C000892B69F714C068A979A98AA99BA90E94F9
:1003D000FA05DC01CB019DAB8CAB8CA99DA999AF33
:1003E00088AF88AD99AD0197F1F799AF88AF8AE0F2
:1003F00091E00E94D6058BE091E00E94D60580E056
:1004000090E0A8ECB2E48E839F83A887B98720E0B0
:1004100030E04AE755E46E817F81888599850E94A6
:100420007B06DC01CB018EA39FA3A8A7B9A720E080
:1004300030E040E85FE36EA17FA188A599A50E9406
:10044000F50588232CF481E090E09BA78AA73FC0A4
:1004500020E03FEF4FE757E46EA17FA188A599A563
:100460000E94760618164CF520E030E040E251E498
:100470006E817F81888599850E947B06DC01CB0196
:10048000BC01CD010E94FA05DC01CB019BA78AA724
:100490000FC080E991E09DA78CA78CA59DA5019731
:1004A000F1F79DA78CA78AA59BA501979BA78AA773
:1004B0008AA59BA5892B69F714C06EA17FA188A589
:1004C00099A50E94FA05DC01CB019BA78AA78AA502
:1004D0009BA59FA78EA78EA59FA50197F1F79FA724
:1004E0008EA785E291E00E94D60580E090E0A8EC1E
:1004F000B2E48A879B87AC87BD8720E030E04AE77B
:1005000055E46A857B858C859D850E947B06DC0190
:10051000CB018C8F9D8FAE8FBF8F20E030E040E805
:100520005FE36C8D7D8D8E8D9F8D0E94F5058823F8
:100530002CF481E090E099A388A33FC020E03FEF36
:100540004FE757E46C8D7D8D8E8D9F8D0E947606D2
:1005500018164CF520E030E040E251E46A857B85D6
:100560008C859D850E947B06DC01CB01BC01CD0101
:100570000E94FA05DC01CB0199A388A30FC080E992
:1005800091E09BA38AA38AA19BA10197F1F79BA36A
:100590008AA388A199A1019799A388A388A199A169
:1005A000892B69F714C06C8D7D8D8E8D9F8D0E9477
:1005B000FA05DC01CB0199A388A388A199A19DA389
:1005C0008CA38CA19DA10197F1F79DA38CA38AE434
:1005D00091E00E94D60580E090E0A8ECB2E48E871E
:1005E0009F87A88BB98B20E030E04AE755E46E8501
:1005F0007F85888999890E947B06DC01CB018A8BE3
:100600009B8BAC8BBD8B20E030E040E85FE36A89D8
:100610007B898C899D890E94F50588232CF481E0D3
:1006200090E09F8B8E8B3FC020E03FEF4FE757E479
:100630006A897B898C899D890E94760618164CF5FB
:1006400020E030E040E251E46E857F858889998919
:100650000E947B06DC01CB01BC01CD010E94FA05A2
:10066000DC01CB019F8B8E8B0FC080E991E0998FCD
:10067000888F888D998D0197F1F7998F888F8E8952
:100680009F8901979F8B8E8B8E899F89892B69F714
:1006900014C06A897B898C899D890E94FA05DC01D6
:1006A000CB019F8B8E8B8E899F899B8F8A8F8A8DA2
:1006B0009B8D0197F1F79B8F8A8F000080918A01B3
:1006C0008823E1F70E948003E3CD86E691E00E9453
:1006D000D605809104019091050101979093050141
:1006E000809304018FEC91E00E949805D1CD88E7BA
:1006F00091E00E94D60585E291E00E94D605C8CD22
:10070000CF93DF93CDB7DEB70E94840727E030E0B8
:10071000B9010E9410078F5C809306010E94840734
:1007200027E030E0B9010E9410078F5C8093070139
:100730000E94840727E030E0B9010E9410078F5C17
:10074000809308010E94840727E030E0B9010E94ED
:1007500010078F5C8093090110920A010000DF915D
:10076000CF910895CF93DF9300D01F92CDB7DEB71E
:100770009B838A83198213C08981882F90E0298105
:10078000222F30E04A815B81240F351FF90120813F
:100790008A5F9E4FFC01208389818F5F89838981D5
:1007A000843050F300000F900F900F90DF91CF91A5
:1007B0000895CF93DF93CDB7DEB760970FB6F89467
:1007C000DEBF0FBECDBF988B8F871D821E82198220
:1007D00027C08981882F90E02981222F30E02A5F6D
:1007E0003E4FF90140819E01295F3F4F820F931FC9
:1007F000FC0140838981882F90E02981222F30E0FD
:100800004F855889240F351FF90140819E01255FCE
:100810003F4F820F931FFC01408389818F5F898343
:1008200089818430B0F21A8231C08A81882F90E0A9
:100830002F853889820F931FFC0140818A81882F80
:1008400090E09E01295F3F4F820F931FFC01808142
:100850004817C9F48A81882F90E09E01295F3F4F95
:10086000820F931F2FEFFC0120838A81882F90E055
:100870009E01255F3F4F820F931F2FEFFC012083C6
:100880008D818F5F8D838A818F5F8A838A81843097
:1008900060F21B824BC08B81882F90E09E01255F08
:1008A0003F4F820F931FFC0180818F3FE1F11C823B
:1008B00037C08C81882F90E09E01295F3F4F820FC7
:1008C000931FFC0180818F3F41F18C81882F90E044
:1008D0009E01295F3F4F820F931FFC0140818B8156
:1008E000882F90E02F853889820F931FFC0180812B
:1008F000481799F49C818B81981779F08C81882F07
:1009000090E09E01295F3F4F820F931F2FEFFC0164
:1009100020838E818F5F8E8306C08C818F5F8C8356
:100920008C81843030F28B818F5F8B838B8184301C
:1009300008F4B1CF8D819E8160960FB6F894DEBF2A
:100940000FBECDBFDF91CF910895CF93DF9300D03D
:100950001F92CDB7DEB79B838A8385EC90E02A8116
:100960003B81232F3327FC01208384EC90E02A81F4
:10097000FC01208381EC90E028E9FC0120831982AE
:1009800089818093AC0189818093AB0189818093B7
:10099000CE0189818093CD0100000F900F900F90C0
:1009A000DF91CF9108951F920F9200905F000F92F8
:1009B00011242F938F939F93EF93FF93CF93DF9304
:1009C00000D0CDB7DEB786EC90E0FC018081898352
:1009D0008091AB018F5F8F718A838A818093AB0195
:1009E0008091AC018A81882F90E085579E4F2981A4
:1009F000FC01208300000F900F90DF91CF91FF91B9
:100A0000EF919F918F912F910F9000925F000F9027
:100A10001F9018951F920F9200905F000F92112463
:100A20002F933F938F939F93EF93FF93CF93DF93F6
:100A30001F92CDB7DEB79091CD018091CE0198176E
:100A4000A1F08091CE018F5F8F718983898180931E
:100A5000CE0186EC90E02981222F30E023553E4FD5
:100A6000F9012081FC01208309C081EC90E021EC98
:100A700030E0F90120812F7DFC01208300000F90E0
:100A8000DF91CF91FF91EF919F918F913F912F91A6
:100A90000F9000925F000F901F901895CF93DF93F7
:100AA0001F92CDB7DEB700009091AB018091AC01F1
:100AB0009817D1F38091AC018F5F8F718983898101
:100AC0008093AC018981882F90E085579E4FFC016F
:100AD00080810F90DF91CF910895CF93DF9300D065
:100AE000CDB7DEB78A838091CD018F5F8F71898307
:100AF00000008091CE0199819817D9F38981882FC0
:100B000090E083559E4F2A81FC0120838981809348
:100B1000CD0181EC90E021EC30E0F90120812062F0
:100B2000FC01208300000F900F90DF91CF9108957A
:100B30000F931F93CF93DF9300D01F92CDB7DEB7F3
:100B40009B838A83198203C089818F5F898389810E
:100B5000882F90E02A813B818901080F191F0E948C
:100B60004E05F8018083F80180818A3069F7898118
:100B700091E0980F9983882F90E02A813B81820F22
:100B8000931F2AE0FC0120838981882F90E02A812D
:100B90003B81820F931FFC01108200000F900F9089
:100BA0000F90DF91CF911F910F910895CF93DF9315
:100BB00000D0CDB7DEB79A8389830BC089819A8133
:100BC0009C012F5F3F4F3A832983FC0180810E9463
:100BD0006D0589819A81FC018081882379F7000065
:100BE0000F900F90DF91CF9108950E94290608F48D
:100BF00081E008950E94550688F09F5798F0B92F1C
:100C00009927B751B0F0E1F0660F771F881F991F41
:100C10001AF0BA95C9F714C0B13091F00E946F066E
:100C2000B1E008950C946F06672F782F8827B85F7E
:100C300039F0B93FCCF3869577956795B395D9F799
:100C40003EF490958095709561957F4F8F4F9F4FA3
:100C50000895990F0008550FAA0BE0E8FEEF16164D
:100C60001706E807F907C0F012161306E407F507A0
:100C700098F0621B730B840B950B39F40A2661F014
:100C8000232B242B252B21F408950A2609F4A140B7
:100C9000A6958FEF811D811D089557FD9058440F33
:100CA000551F59F05F3F71F04795880F97FB991FCB
:100CB00061F09F3F79F08795089512161306140688
:100CC000551FF2CF4695F1DF08C016161706180615
:100CD000991FF1CF86957105610508940895E894F0
:100CE000BB2766277727CB0197F908950E9429062D
:100CF00008F48FEF08950E948E060C94FF060E9460
:100D0000F10638F00E94F80620F0952311F00C94BB
:100D1000E8060C94EE0611240C9470060E944D0611
:100D200070F3959FC1F3950F50E0551F629FF0013E
:100D3000729FBB27F00DB11D639FAA27F00DB11D57
:100D4000AA1F649F6627B00DA11D661F829F2227E0
:100D5000B00DA11D621F739FB00DA11D621F839F67
:100D6000A00D611D221F749F3327A00D611D231F3D
:100D7000849F600D211D822F762F6A2F11249F578B
:100D800050409AF0F1F088234AF0EE0FFF1FBB1F8E
:100D9000661F771F881F91505040A9F79E3F51054D
:100DA00080F00C94E8060C9470065F3FE4F3983EE4
:100DB000D4F3869577956795B795F795E7959F5FF7
:100DC000C1F7FE2B880F911D9695879597F9089589
:100DD00097F99F6780E870E060E008959FEF80ECEE
:100DE000089500240A941616170618060906089591
:100DF00000240A9412161306140605060895092EF7
:100E00000394000C11F4882352F0BB0F40F4BF2B65
:100E100011F460FF04C06F5F7F4F8F4F9F4F0895A5
:100E200097FB072E16F4009407D077FD09D00E9497
:100E3000240707FC05D03EF4909581959F4F0895B7
:100E4000709561957F4F0895AA1BBB1B51E107C0A8
:100E5000AA1FBB1FA617B70710F0A61BB70B881F4A
:100E6000991F5A95A9F780959095BC01CD010895D9
:100E70008F929F92AF92BF92CF92DF92EF92FF92AA
:100E8000CF93DF93EC01688179818A819B81611521
:100E900071058105910521F464E279ED8BE597E018
:100EA0002DE133EF41E050E00E94940749015A01DF
:100EB0009B01AC01A7EAB1E40E94B3076B017C017E
:100EC000ACEEB4EFA50194010E94C107DC01CB0197
:100ED0008C0D9D1DAE1DBF1DB7FF03C00197A1095D
:100EE000B04888839983AA83BB839F77DF91CF9192
:100EF000FF90EF90DF90CF90BF90AF909F908F903A
:100F000008950E943807089580E091E00E94380714
:100F10000895A0E0B0E08093000190930101A093B8
:100F20000201B09303010895052E97FB1EF400946F
:100F30000E94AB0757FD07D00E94C60707FC03D0ED
:100F40004EF40C94AB0750954095309521953F4F4A
:100F50004F4F5F4F089590958095709561957F4FA5
:100F60008F4F9F4F08950E94E807A59F900DB49F53
:100F7000900DA49F800D911D11240895B7FF0C942E
:100F8000B3070E94B307821B930B0895A1E21A2EA8
:100F9000AA1BBB1BFD010DC0AA1FBB1FEE1FFF1F1D
:100FA000A217B307E407F50720F0A21BB30BE40B6D
:100FB000F50B661F771F881F991F1A9469F76095B4
:100FC0007095809590959B01AC01BD01CF0108956E
:100FD000A29FB001B39FC001A39F700D811D11247A
:100FE000911DB29F700D811D1124911D0895F894DB
:020FF000FFCF31
:100FF200010000000C00FF000000000D0A596F758F
:1010020020617265206D79204D61737465726D691E
:101012006E640D0A005072657373207468652073E4
:10102200776974636820746F2072657365742074C5
:1010320068652067616D650D0A004F7220707265E8
:10104200737320656E74657220746F2072656672A8
:101052006573680D0A00456E74657220796F75724A
:1010620020636F64650D0A00596F752068617665AB
:08107200206C6F73740D0A007D
:00000001FF
