S01200006D61737465726D696E642E73726563DE
S11300000C9434000C9451000C9451000C94730023
S11300100C9451000C9451000C9451000C94510018
S11300200C9451000C9451000C9451000C94510008
S11300300C9451000C9451000C9451000C945100F8
S11300400C9453000C9451000C94E5060C941C077A
S11300500C9451000C9451000C9451000C945100D8
S11300600C9451000C94510011241FBECFEFD8E022
S1130070DEBFCDBF11E0A0E0B1E0E6E1F4E102C0F3
S113008005900D92AE3AB107D9F721E0AEEAB1E09E
S113009001C01D92AB3FB207E1F70E94C4000C946B
S11300A0090A0C9400001F920F9200905F000F92B7
S11300B011248F939F93CF93DF93CDB7DEB78091B5
S11300C0AE019091AF0101969093AF018093AE0180
S11300D00000DF91CF919F918F910F9000925F006C
S11300E00F901F9018951F920F9200905F000F922F
S11300F011242F933F934F935F936F937F938F9329
S11301009F93AF93BF93EF93FF93CF93DF93CDB7B9
S1130110DEB783E290E023E230E0F9012081286039
S1130120FC01208383E290E0FC0180818823BCF001
S11301300E94100586E091E00E94C4058CE090E0E6
S113014090930501809304011092B00185E290E040
S113015025E230E0F90120812F7DFC01208300009D
S1130160DF91CF91FF91EF91BF91AF919F918F91CB
S11301707F916F915F914F913F912F910F900092DA
S11301805F000F901F9018950F931F93CF93DF93E9
S1130190CDB7DEB7C755D1090FB6F894DEBF0FBE91
S11301A0CDBF81E090E09A83898387E690E00E9446
S11301B0B70684E290E024E230E0F9012081206275
S11301C0FC01208385E290E025E230E0F901208102
S11301D02F7DFC0120838BE690E02BE630E0F901D3
S11301E020812068FC01208388E690E028E630E046
S11301F0F90120812160FC012083789485E490E05A
S113020025E430E0F90120812160FC01208385E4AC
S113021090E025E430E0F90120812460FC01208392
S11302208EE690E02EE630E0F90120812160FC01A9
S1130230208384E290E024E230E0F9012081286008
S1130240FC01208384E290E024E230E0F901208183
S11302502F77FC01208381E38093060181E380935F
S1130260070182E38093080182E3809309011092DD
S11302700A0181E38093F50182E38093F60183E32D
S11302808093F70184E38093F8011092F90180E3ED
S11302908B838091AE019091AF010E949B091092D3
S11302A0F90186E091E00E94E80785EF91E00E9461
S11302B0E80785EF91E00E94EB059093FA018093A3
S11302C0F9018091F901805D8B838B810E947F0706
S11302D08091FA01805D8B838B810E947F0780E08F
S11302E090E0A8ECB2E4888F998FAA8FBB8F20E0AE
S11302F030E04AE755E4688D798D8A8D9B8D0E94A4
S11303008D08DC01CB018C8F9D8FAE8FBF8F20E0D9
S113031030E040E85FE36C8D7D8D8E8D9F8D0E9473
S1130320070888232CF481E090E099A388A33FC0B8
S113033020E03FEF4FE757E46C8D7D8D8E8D9F8DD0
S11303400E94880818164CF520E030E040E251E4A1
S1130350688D798D8A8D9B8D0E948D08DC01CB017F
S1130360BC01CD010E940C08DC01CB0199A388A338
S11303700FC080E991E09BA38AA38AA19BA1019766
S1130380F1F79BA38AA388A199A1019799A388A3B4
S113039088A199A1892B69F714C06C8D7D8D8E8DF0
S11303A09F8D0E940C08DC01CB0199A388A388A12E
S11303B099A19DA38CA38CA19DA10197F1F79DA365
S11303C08CA38091040190910501892B09F4A3C1A8
S11303D08091F901843009F08CC185E290E025E236
S11303E030E0F90120812062FC01208380E090E06C
S11303F0A8ECB2E4888B998BAA8BBB8B20E030E00D
S11304004AE755E4688979898A899B890E948D081D
S1130410DC01CB018AAF9BAFACAFBDAF20E030E0D5
S113042040E85FE36AAD7BAD8CAD9DAD0E940708EB
S113043088232CF481E090E09FAF8EAF4BC020E086
S11304403FEF4FE757E46AAD7BAD8CAD9DAD0E94A5
S113045088081816ACF520E030E040E251E46889E1
S113046079898A899B890E948D08DC01CB01BC01B2
S1130470CD010E940C08DC01CB019FAF8EAF1BC0E5
S1130480CE01805C9F4F20E931E0FC013183208361
S1130490CE01805C9F4FFC01808191810197F1F72F
S11304A09E01205C3F4FF901918380838EAD9FAD07
S11304B001979FAF8EAF8EAD9FAD892B09F720C0FA
S11304C06AAD7BAD8CAD9DAD0E940C08DC01CB0107
S11304D09FAF8EAFCE018E5B9F4F2EAD3FADFC0123
S11304E031832083CE018E5B9F4FFC0180819181FB
S11304F00197F1F79E012E5B3F4FF90191838083B1
S11305008AE091E00E94E8078BE091E00E94E8070E
S113051080E090E0A8ECB2E48C8B9D8BAE8BBF8B1B
S113052020E030E04AE755E46C897D898E899F8913
S11305300E948D08DC01CB0188AB99ABAAABBBABA5
S113054020E030E040E85FE368A979A98AA99BA983
S11305500E94070888232CF481E090E09DAB8CABCB
S11305603FC020E03FEF4FE757E468A979A98AA983
S11305709BA90E94880818164CF520E030E040E260
S113058051E46C897D898E899F890E948D08DC01E4
S1130590CB01BC01CD010E940C08DC01CB019DAB59
S11305A08CAB0FC080E991E09FAB8EAB8EA99FA965
S11305B00197F1F79FAB8EAB8CA99DA901979DABD9
S11305C08CAB8CA99DA9892B69F714C068A979A95A
S11305D08AA99BA90E940C08DC01CB019DAB8CABC2
S11305E08CA99DA999AF88AF88AD99AD0197F1F712
S11305F099AF88AF85E291E00E94E80780E090E03F
S1130600A8ECB2E48C839D83AE83BF8320E030E00A
S11306104AE755E46C817D818E819F810E948D081B
S1130620DC01CB018EA39FA3A8A7B9A720E030E0EB
S113063040E85FE36EA17FA188A599A50E94070801
S113064088232CF481E090E09BA78AA73FC020E098
S11306503FEF4FE757E46EA17FA188A599A50E94BB
S1130660880818164CF520E030E040E251E46C8133
S11306707D818E819F810E948D08DC01CB01BC01AC
S1130680CD010E940C08DC01CB019BA78AA70FC0F7
S113069080E991E09DA78CA78CA59DA50197F1F712
S11306A09DA78CA78AA59BA501979BA78AA78AA526
S11306B09BA5892B69F714C06EA17FA188A599A574
S11306C00E940C08DC01CB019BA78AA78AA59BA5E5
S11306D09FA78EA78EA59FA50197F1F79FA78EA729
S11306E081E08093B00100008091B0018823E1F79C
S11306F0CECD8AE491E00E94E807809104019091B4
S113070005010197909305018093040185EF91E021
S11307100E94AA07BCCD8CE591E00E94E8078CE614
S113072091E00E94E80780E090E0A8ECB2E48887BA
S11307309987AA87BB878E01025B1F4F20E030E0B8
S11307404AE755E4688579858A859B850E948D08EA
S1130750DC01CB01F80180839183A283B383CE01B2
S1130760825B9F4F20E030E040E85FE3FC01608162
S11307707181828193810E94070888234CF4CE0101
S11307808E5A9F4F21E030E0FC013183208369C001
S1130790CE01825B9F4F20E03FEF4FE757E4FC011F
S11307A060817181828193810E94880818160CF0FF
S11307B046C020E030E040E251E4688579858A85CE
S11307C09B850E948D08DC01CB018E010E5A1F4FC0
S11307D0BC01CD010E940C08DC01CB01F80191831E
S11307E0808324C0CE018C5A9F4F20E931E0FC0164
S11307F031832083CE018C5A9F4FFC0180819181EB
S11308000197F1F79E012C5A3F4FF90191838083A0
S1130810CE018E5A9F4F9E012E5A3F4FF9012081DF
S1130820318121503109FC0131832083CE018E5A5C
S11308309F4FFC0180819181892BA1F62CC08E01F0
S11308400E5A1F4FCE01825B9F4FFC016081718164
S1130850828193810E940C08DC01CB01F801918311
S11308608083CE018A5A9F4F9E012E5A3F4FF90131
S113087020813181FC0131832083CE018A5A9F4F2C
S1130880FC01808191810197F1F79E012A5A3F4F23
S1130890F9019183808385E291E00E94E80780E07A
S11308A090E0A8ECB2E48C879D87AE87BF878E0169
S11308B00C5B1F4F20E030E04AE755E46C857D85F2
S11308C08E859F850E948D08DC01CB01F801808311
S11308D09183A283B383CE018C5B9F4F20E030E0F1
S11308E040E85FE3FC0160817181828193810E9411
S11308F0070888234CF4CE01885B9F4F21E030E049
S1130900FC013183208369C0CE018C5B9F4F20E0C2
S11309103FEF4FE757E4FC0160817181828193814D
S11309200E94880818160CF046C020E030E040E22F
S113093051E46C857D858E859F850E948D08DC0140
S1130940CB018E01085B1F4FBC01CD010E940C0836
S1130950DC01CB01F8019183808324C0CE01865B46
S11309609F4F20E931E0FC0131832083CE01865B77
S11309709F4FFC01808191810197F1F79E01265BD5
S11309803F4FF90191838083CE01885B9F4F9E0185
S1130990285B3F4FF9012081318121503109FC014D
S11309A031832083CE01885B9F4FFC01808191813C
S11309B0892BA1F62CC08E01085B1F4FCE018C5BE6
S11309C09F4FFC0160817181828193810E940C0898
S11309D0DC01CB01F80191838083CE01845B9F4FBE
S11309E09E01285B3F4FF90120813181FC01318355
S11309F02083CE01845B9F4FFC018081918101970C
S1130A00F1F79E01245B3F4FF9019183808381E0DC
S1130A108093B00100008091B0018823E1F737CCC6
S1130A20CF93DF93CDB7DEB72E970FB6F894DEBF22
S1130A300FBECDBF0E94960927E030E0B9010E94A5
S1130A4022098F5C809306010E94960927E030E01A
S1130A50B9010E9422098F5C809307010E949609C4
S1130A6027E030E0B9010E9422098F5C80930801DD
S1130A700E94960927E030E0B9010E9422098F5CA8
S1130A808093090110920A0181E991E00E94E8072C
S1130A9080E090E0A8ECB2E489839A83AB83BC83C2
S1130AA020E030E04AE755E469817A818B819C81BA
S1130AB00E948D08DC01CB018D839E83AF83B887B0
S1130AC020E030E040E85FE36D817E818F8198858E
S1130AD00E94070888232CF481E090E09A87898794
S1130AE03FC020E03FEF4FE757E46D817E818F8167
S1130AF098850E94880818164CF520E030E040E202
S1130B0051E469817A818B819C810E948D08DC018A
S1130B10CB01BC01CD010E940C08DC01CB019A87FA
S1130B2089870FC080E991E09C878B878B859C85A2
S1130B300197F1F79C878B8789859A8501979A8716
S1130B40898789859A85892B69F715C06D817E818E
S1130B508F8198850E940C08DC01CB019A878987D4
S1130B6089859A859E878D878D859E850197F1F766
S1130B709E878D8700002E960FB6F894DEBF0FBEB9
S1130B80CDBFDF91CF910895CF93DF9300D01F9213
S1130B90CDB7DEB79B838A83198213C08981882FDE
S1130BA090E02981222F30E04A815B81240F351F98
S1130BB0F90120818A5F9E4FFC01208389818F5F28
S1130BC089838981843050F300000F900F900F9037
S1130BD0DF91CF910895CF93DF93CDB7DEB76097C0
S1130BE00FB6F894DEBF0FBECDBF988B8F871D82E2
S1130BF01E82198227C08981882F90E02981222FA3
S1130C0030E02A5F3E4FF90140819E01295F3F4F4A
S1130C10820F931FFC0140838981882F90E02981F2
S1130C20222F30E04F855889240F351FF901408168
S1130C309E01255F3F4F820F931FFC0140838981F2
S1130C408F5F898389818430B0F21A8231C08A81AE
S1130C50882F90E02F853889820F931FFC014081F3
S1130C608A81882F90E09E01295F3F4F820F931F56
S1130C70FC0180814817C9F48A81882F90E09E0185
S1130C80295F3F4F820F931F2FEFFC0120838A813E
S1130C90882F90E09E01255F3F4F820F931F2FEF17
S1130CA0FC0120838D818F5F8D838A818F5F8A838E
S1130CB08A81843060F21B824BC08B81882F90E044
S1130CC09E01255F3F4F820F931FFC0180818F3F60
S1130CD0E1F11C8237C08C81882F90E09E01295F4E
S1130CE03F4F820F931FFC0180818F3F41F18C8124
S1130CF0882F90E09E01295F3F4F820F931FFC01D4
S1130D0040818B81882F90E02F853889820F931F33
S1130D10FC018081481799F49C818B81981779F0A4
S1130D208C81882F90E09E01295F3F4F820F931F93
S1130D302FEFFC0120838E818F5F8E8306C08C8110
S1130D408F5F8C838C81843030F28B818F5F8B83B7
S1130D508B81843008F4B1CF8D819E8160960FB66B
S1130D60F894DEBF0FBECDBFDF91CF910895CF932E
S1130D70DF9300D01F92CDB7DEB79B838A8385ECC7
S1130D8090E02A813B81232F3327FC01208384ECCC
S1130D9090E02A81FC01208381EC90E028E9FC01A9
S1130DA02083198289818093D20189818093D10122
S1130DB089818093F40189818093F30100000F906D
S1130DC00F900F90DF91CF9108951F920F92009092
S1130DD05F000F9211242F938F939F93EF93FF93B0
S1130DE0CF93DF9300D0CDB7DEB786EC90E0FC0163
S1130DF0808189838091D1018F5F8F718A838A81F9
S1130E008093D1018091D2018A81882F90E08F5400
S1130E109E4F2981FC01208300000F900F90DF91E9
S1130E20CF91FF91EF919F918F912F910F9000920D
S1130E305F000F901F9018951F920F9200905F0013
S1130E400F9211242F933F938F939F93EF93FF93CC
S1130E50CF93DF931F92CDB7DEB79091F3018091CA
S1130E60F4019817A1F08091F4018F5F8F71898349
S1130E7089818093F40186EC90E02981222F30E06F
S1130E802D523E4FF9012081FC01208309C081ECE1
S1130E9090E021EC30E0F90120812F7DFC012083DA
S1130EA000000F90DF91CF91FF91EF919F918F916F
S1130EB03F912F910F9000925F000F901F90189513
S1130EC0CF93DF931F92CDB7DEB700009091D1018D
S1130ED08091D2019817D1F38091D2018F5F8F71E5
S1130EE0898389818093D2018981882F90E08F54EE
S1130EF09E4FFC0180810F90DF91CF910895CF9395
S1130F00DF9300D0CDB7DEB78A838091F3018F5F82
S1130F108F71898300008091F40199819817D9F326
S1130F208981882F90E08D529E4F2A81FC01208375
S1130F3089818093F30181EC90E021EC30E0F901A8
S1130F4020812062FC01208300000F900F90DF912C
S1130F50CF9108950F931F93CF93DF9300D01F92E7
S1130F60CDB7DEB79B838A83198203C089818F5FE3
S1130F7089838981882F90E02A813B818901080F28
S1130F80191F0E946007F8018083F80180818A306C
S1130F9069F7898191E0980F9983882F90E02A81DD
S1130FA03B81820F931F2AE0FC0120838981882FD3
S1130FB090E02A813B81820F931FFC011082000084
S1130FC00F900F900F90DF91CF911F910F91089583
S1130FD0CF93DF9300D0CDB7DEB79A8389830BC05C
S1130FE089819A819C012F5F3F4F3A832983FC01B9
S1130FF080810E947F0789819A81FC0180818823F6
S113100079F700000F900F90DF91CF9108950E941F
S11310103B0808F481E008950E94670888F09F5710
S113102098F0B92F9927B751B0F0E1F0660F771F08
S1131030881F991F1AF0BA95C9F714C0B13091F0FE
S11310400E948108B1E008950C948108672F782FDD
S11310508827B85F39F0B93FCCF3869577956795C3
S1131060B395D9F73EF490958095709561957F4F2F
S11310708F4F9F4F0895990F0008550FAA0BE0E872
S1131080FEEF16161706E807F907C0F01216130646
S1131090E407F50798F0621B730B840B950B39F486
S11310A00A2661F0232B242B252B21F408950A26EC
S11310B009F4A140A6958FEF811D811D089557FD68
S11310C09058440F551F59F05F3F71F04795880FB2
S11310D097FB991F61F09F3F79F087950895121649
S11310E013061406551FF2CF4695F1DF08C01616F5
S11310F017061806991FF1CF8695710561050894A6
S11311000895E894BB2766277727CB0197F90895BC
S11311100E943B0808F48FEF08950E94A0080C94E5
S113112011090E94030938F00E940A0920F095234E
S113113011F00C94FA080C94000911240C94820800
S11311400E945F0870F3959FC1F3950F50E0551FFF
S1131150629FF001729FBB27F00DB11D639FAA2708
S1131160F00DB11DAA1F649F6627B00DA11D661F57
S1131170829F2227B00DA11D621F739FB00DA11D78
S1131180621F839FA00D611D221F749F3327A00D32
S1131190611D231F849F600D211D822F762F6A2FCE
S11311A011249F5750409AF0F1F088234AF0EE0F33
S11311B0FF1FBB1F661F771F881F91505040A9F760
S11311C09E3F510580F00C94FA080C9482085F3F0E
S11311D0E4F3983ED4F3869577956795B795F7959C
S11311E0E7959F5FC1F7FE2B880F911D9695879514
S11311F097F9089597F99F6780E870E060E0089593
S11312009FEF80EC089500240A941616170618061A
S11312100906089500240A941216130614060506F6
S11312200895092E0394000C11F4882352F0BB0F87
S113123040F4BF2B11F460FF04C06F5F7F4F8F4FEA
S11312409F4F089597FB072E16F4009407D077FD5F
S113125009D00E94360907FC05D03EF4909581958B
S11312609F4F0895709561957F4F0895AA1BBB1BEE
S113127051E107C0AA1FBB1FA617B70710F0A61B92
S1131280B70B881F991F5A95A9F780959095BC01B3
S1131290CD0108958F929F92AF92BF92CF92DF9229
S11312A0EF92FF92CF93DF93EC01688179818A8179
S11312B09B81611571058105910521F464E279ED45
S11312C08BE597E02DE133EF41E050E00E94A60961
S11312D049015A019B01AC01A7EAB1E40E94C50986
S11312E06B017C01ACEEB4EFA50194010E94D3091B
S11312F0DC01CB018C0D9D1DAE1DBF1DB7FF03C0CE
S11313000197A109B04888839983AA83BB839F77F7
S1131310DF91CF91FF90EF90DF90CF90BF90AF908F
S11313209F908F9008950E944A09089580E091E06B
S11313300E944A090895A0E0B0E0809300019093D0
S11313400101A0930201B09303010895052E97FBB8
S11313501EF400940E94BD0957FD07D00E94D809CD
S113136007FC03D04EF40C94BD095095409530957C
S113137021953F4F4F4F5F4F0895909580957095FD
S113138061957F4F8F4F9F4F08950E94FA09A59F43
S1131390900DB49F900DA49F800D911D112408956C
S11313A0B7FF0C94C5090E94C509821B930B0895CD
S11313B0A1E21A2EAA1BBB1BFD010DC0AA1FBB1F55
S11313C0EE1FFF1FA217B307E407F50720F0A21BC7
S11313D0B30BE40BF50B661F771F881F991F1A9434
S11313E069F760957095809590959B01AC01BD015E
S11313F0CF010895A29FB001B39FC001A39F700DB8
S1131400811D1124911DB29F700D811D1124911D08
S10914100895F894FFCFDB
S1131416010000000C00FF000000000D0A596F7562
S113142620617265206D79204D61737465726D69F2
S11314366E640D0A005072657373207468652062C9
S11314467574746F6E20746F20726573657420747E
S113145668652067616D650D0A00456E74657220C6
S1131466796F757220636F64650D0A00596F752074
S113147668617665206C6F73740D0A00507265732B
S113148673207468652073776974636820746F20A9
S11314967265736574207468652067616D650D0AED
S11314A6000D0A5468652067616D652068617320C4
S11114B66265656E2072657365740D0A000030
S9030000FC
