S01200006D61737465726D696E642E73726563DE
S11300000C9434000C9451000C9451000C94530043
S11300100C9451000C9451000C9451000C94510018
S11300200C9451000C9451000C9451000C94510008
S11300300C9451000C9451000C9451000C945100F8
S11300400C9451000C9451000C94D9010C9410029E
S11300500C9451000C9451000C9451000C945100D8
S11300600C9451000C94510011241FBECFEFD8E022
S1130070DEBFCDBF11E0A0E0B1E0EEEAF9E002C0DE
S113008005900D92AE38B107D9F721E0AEE8B1E0A2
S113009001C01D92A83DB207E1F70E94A6000C948E
S11300A0D5040C9400001F920F9200905F000F92F1
S11300B011242F933F934F935F936F937F938F9369
S11300C09F93AF93BF93EF93FF93CF93DF93CDB7FA
S11300D0DEB783E290E023E230E0F901208128607A
S11300E0FC01208383E290E0FC0180818823CCF032
S11300F00E94790186E091E00E94FB028CE090E08E
S1130100909305018093040185E290E025E230E0BC
S1130110F90120812F7DFC0120838AE091E00E9477
S1130120DC020000DF91CF91FF91EF91BF91AF917D
S11301309F918F917F916F915F914F913F912F91FB
S11301400F9000925F000F901F901895CF93DF934C
S113015000D01F92CDB7DEB787E690E00E94AB01D6
S113016084E290E024E230E0F90120812062FC0185
S1130170208385E290E025E230E0F90120812F7DA3
S1130180FC0120838BE690E02BE630E0F90120812E
S11301902068FC01208388E690E028E630E0F9013D
S11301A020812160FC012083789484E290E024E2A1
S11301B030E0F90120812860FC01208384E290E092
S11301C024E230E0F90120812F77FC0120831A8298
S11301D0198281E38093060181E38093070182E31E
S11301E08093080182E38093090110920A0181E35C
S11301F08093D20182E38093D30183E38093D4017B
S113020084E38093D5011092D60182ED91E00E949F
S113021022039093D7018093D60180E38B83898155
S11302209A8101969A83898389819A810E946704BD
S113023086E091E00E94DC0282ED91E00E94DC0203
S11302408091D601805D8B838B810E9473028091A3
S1130250D701805D8B838B810E94730282ED91E0D4
S11302600E9422039093D7018093D60180910401C8
S113027090910501892B61F18091D6018430B1F40C
S113028085E290E025E230E0F90120812062FC0162
S1130290208385E191E00E94DC028EE291E00E94DD
S11302A0DC0281E591E00E94DC021AC08BE691E059
S11302B00E94DC0282ED91E00E949E028091040182
S11302C0909105010197909305018093040108C062
S11302D08DE791E00E94DC028EE291E00E94DC0254
S11302E082ED91E00E9422039093D7018093D6017E
S11302F094CFCF93DF93CDB7DEB70E94620427E09B
S113030030E0B9010E94EE038F5C809306010E94E5
S1130310620427E030E0B9010E94EE038F5C809311
S113032007010E94620427E030E0B9010E94EE0355
S11303308F5C809308010E94620427E030E0B901D9
S11303400E94EE038F5C8093090110920A01000061
S1130350DF91CF910895CF93DF9300D01F92CDB753
S1130360DEB79B838A8385EC90E02A813B81232F2F
S11303703327FC01208384EC90E02A81FC01208354
S113038081EC90E028E9FC01208319828981809323
S1130390AF0189818093AE0189818093D1018981E4
S11303A08093D00100000F900F900F90DF91CF91B8
S11303B008951F920F9200905F000F9211242F93C3
S11303C08F939F93EF93FF93CF93DF9300D0CDB799
S11303D0DEB786EC90E0FC01808189838091AE01D8
S11303E08F5F8F718A838A818093AE018091AF0180
S11303F08A81882F90E082579E4F2981FC012083B7
S113040000000F900F90DF91CF91FF91EF919F919A
S11304108F912F910F9000925F000F901F9018956D
S11304201F920F9200905F000F9211242F933F931D
S11304308F939F93EF93FF93CF93DF931F92CDB747
S1130440DEB79091D0018091D1019817A1F08091ED
S1130450D1018F5F8F71898389818093D10186EC6B
S113046090E02981222F30E020553E4FF901208170
S1130470FC01208309C081EC90E021EC30E0F9011B
S113048020812F7DFC01208300000F90DF91CF910C
S1130490FF91EF919F918F913F912F910F90009237
S11304A05F000F901F901895CF93DF931F92CDB7E5
S11304B0DEB700009091AE018091AF019817D1F39F
S11304C08091AF018F5F8F71898389818093AF01A0
S11304D08981882F90E082579E4FFC0180810F9084
S11304E0DF91CF910895CF93DF9300D0CDB7DEB7DE
S11304F08A838091D0018F5F8F71898300008091FE
S1130500D10199819817D9F38981882F90E080557A
S11305109E4F2A81FC01208389818093D00181EC44
S113052090E021EC30E0F90120812062FC0120837D
S113053000000F900F90DF91CF9108950F931F93B8
S1130540CF93DF9300D01F92CDB7DEB79B838A830E
S1130550198203C089818F5F89838981882F90E004
S11305602A813B818901080F191F0E945402F80156
S11305708083F80180818A3069F7898191E0980F3E
S11305809983882F90E02A813B81820F931F2AE070
S1130590FC0120838981882F90E02A813B81820F8E
S11305A0931FFC01108200000F900F900F90DF91B9
S11305B0CF911F910F910895CF93DF9300D0CDB7C2
S11305C0DEB79A8389830BC089819A819C012F5F4E
S11305D03F4F3A832983FC0180810E947302898101
S11305E09A81FC018081882379F700000F900F9095
S11305F0DF91CF910895CF93DF9300D01F92CDB7B1
S1130600DEB79B838A83198213C08981882F90E087
S11306102981222F30E04A815B81240F351FF901A3
S113062020818A5F9E4FFC01208389818F5F8983AB
S11306308981843050F300000F900F900F90DF9168
S1130640CF910895CF93DF93CDB7DEB760970FB600
S1130650F894DEBF0FBECDBF988B8F871D821E829C
S1130660198227C08981882F90E02981222F30E0C8
S11306702A5F3E4FF90140819E01295F3F4F820F5F
S1130680931FFC0140838981882F90E02981222FC8
S113069030E04F855889240F351FF90140819E01B0
S11306A0255F3F4F820F931FFC01408389818F5F39
S11306B0898389818430B0F21A8231C08A81882F7B
S11306C090E02F853889820F931FFC0140818A8135
S11306D0882F90E09E01295F3F4F820F931FFC01FA
S11306E080814817C9F48A81882F90E09E01295F90
S11306F03F4F820F931F2FEFFC0120838A81882FA5
S113070090E09E01255F3F4F820F931F2FEFFC0166
S113071020838D818F5F8D838A818F5F8A838A8115
S1130720843060F21B824BC08B81882F90E09E0145
S1130730255F3F4F820F931FFC0180818F3FE1F1C2
S11307401C8237C08C81882F90E09E01295F3F4F27
S1130750820F931FFC0180818F3F41F18C81882F90
S113076090E09E01295F3F4F820F931FFC0140815F
S11307708B81882F90E02F853889820F931FFC018D
S11307808081481799F49C818B81981779F08C812A
S1130790882F90E09E01295F3F4F820F931F2FEF18
S11307A0FC0120838E818F5F8E8306C08C818F5FD6
S11307B08C838C81843030F28B818F5F8B838B812F
S11307C0843008F4B1CF8D819E8160960FB6F89481
S11307D0DEBF0FBECDBFDF91CF91089597FB072EEB
S11307E016F4009407D077FD09D00E94020407FC98
S11307F005D03EF4909581959F4F0895709561952D
S11308007F4F0895AA1BBB1B51E107C0AA1FBB1F42
S1130810A617B70710F0A61BB70B881F991F5A9588
S1130820A9F780959095BC01CD0108958F929F9270
S1130830AF92BF92CF92DF92EF92FF92CF93DF936A
S1130840EC01688179818A819B816115710581053B
S1130850910521F464E279ED8BE597E02DE133EF26
S113086041E050E00E94720449015A019B01AC012D
S1130870A7EAB1E40E9491046B017C01ACEEB4EFF1
S1130880A50194010E949F04DC01CB018C0D9D1DE8
S1130890AE1DBF1DB7FF03C00197A109B0488883EF
S11308A09983AA83BB839F77DF91CF91FF90EF90C9
S11308B0DF90CF90BF90AF909F908F9008950E944B
S11308C01604089580E091E00E9416040895A0E0C3
S11308D0B0E08093000190930101A0930201B093D2
S11308E003010895052E97FB1EF400940E948904C9
S11308F057FD07D00E94A40407FC03D04EF40C94C7
S1130900890450954095309521953F4F4F4F5F4F47
S1130910089590958095709561957F4F8F4F9F4F67
S113092008950E94C604A59F900DB49F900DA49FA6
S1130930800D911D11240895B7FF0C9491040E9419
S11309409104821B930B0895A1E21A2EAA1BBB1BD0
S1130950FD010DC0AA1FBB1FEE1FFF1FA217B30787
S1130960E407F50720F0A21BB30BE40BF50B661F9D
S1130970771F881F991F1A9469F760957095809561
S113098090959B01AC01BD01CF010895A29FB001D8
S1130990B39FC001A39F700D811D1124911DB29FAF
S11109A0700D811D1124911D0895F894FFCF50
S11309AE010000000C00FF00000047616D6520721D
S11309BE657365740020596F7520617265206D79B9
S11309CE204D61737465726D696E640D0A00507208
S11309DE6573732074686520737769746368207413
S11309EE6F207265736574207468652067616D6528
S11309FE004F7220707265737320656E7465722079
S1130A0E746F207265667265736800456E746572E4
S1130A1E20796F757220636F64650D0A00596F75C6
S1110A2E2068617665206C6F73740D0A0000F9
S9030000FC
