S01200006D61737465726D696E642E73726563DE
S11300000C9434000C9451000C9451000C94530043
S11300100C9451000C9451000C9451000C94510018
S11300200C9451000C9451000C9451000C94510008
S11300300C9451000C9451000C9451000C945100F8
S11300400C9451000C9451000C946F010C94A60173
S11300500C9451000C9451000C9451000C945100D8
S11300600C9451000C94510011241FBECFEFD8E022
S1130070DEBFCDBF11E0A0E0B1E0E2EDF7E002C0E9
S113008005900D92A830B107D9F721E0A8E0B1E0BE
S113009001C01D92A235B207E1F70E948F000C94B3
S11300A0E7030C9400001F920F9200905F000F92E0
S11300B011242F933F934F935F936F937F938F9369
S11300C09F93AF93BF93EF93FF93CF93DF93CDB7FA
S11300D0DEB783E290E023E230E0F9012081206280
S11300E0FC01208383E290E0FC018081882314F0EA
S11300F00E9408010000DF91CF91FF91EF91BF9121
S1130100AF919F918F917F916F915F914F913F91AB
S11301102F910F9000925F000F901F901895CF932E
S1130120DF9300D0CDB7DEB787E690E00E944101AF
S113013084E290E024E230E0F90120812062FC01B5
S1130140208385E290E025E230E0F90120812F7DD3
S1130150FC0120838BE690E02BE630E0F90120815E
S11301602068FC01208388E690E028E630E0F9016D
S113017020812160FC012083789484E290E024E2D1
S113018030E0F90120812860FC01208384E290E0C2
S113019024E230E0F90120812F77FC01208381E003
S11301A08093040181E08093050182E0809306013D
S11301B082E0809307011A82198281E080934C01C6
S11301C082E080934D0183E080934E0184E080932C
S11301D04F018CE491E00E9434029093510180938A
S11301E0500180915001843049F485E290E025E289
S11301F030E0F90120812062FC01208389819A8109
S113020001969A83898389819A810E947903F6CF22
S1130210CF93DF93CDB7DEB70E94740327E030E0BD
S1130220B9010E9400038F5C809304010E9474034F
S113023027E030E0B9010E9400038F5C8093050140
S11302400E94740327E030E0B9010E9400038F5C30
S1130250809306010E94740327E030E0B9010E94F4
S113026000038F5C809307018AE08093080184E097
S113027091E00E941502109208010000DF91CF91D5
S11302800895CF93DF9300D01F92CDB7DEB79B8341
S11302908A8385EC90E02A813B81232F3327FC015C
S11302A0208384EC90E02A81FC01208381EC90E09F
S11302B028E9FC012083198289818093290189819D
S11302C080932801898180934B01898180934A011D
S11302D000000F900F900F90DF91CF9108951F921F
S11302E00F9200905F000F9211242F938F939F938E
S11302F0EF93FF93CF93DF9300D0CDB7DEB786ECB7
S113030090E0FC0180818983809128018F5F8F7147
S11303108A838A8180932801809129018A81882F88
S113032090E0885F9E4F2981FC01208300000F909C
S11303300F90DF91CF91FF91EF919F918F912F912A
S11303400F9000925F000F901F9018951F920F92CC
S113035000905F000F9211242F933F938F939F93EC
S1130360EF93FF93CF93DF931F92CDB7DEB79091B6
S11303704A0180914B019817A1F080914B018F5F46
S11303808F718983898180934B0186EC90E0298168
S1130390222F30E0265D3E4FF9012081FC012083AD
S11303A009C081EC90E021EC30E0F90120812F7D3F
S11303B0FC01208300000F90DF91CF91FF91EF911A
S11303C09F918F913F912F910F9000925F000F901A
S11303D01F901895CF93DF9300D0CDB7DEB78A83F3
S11303E080914A018F5F8F718983000080914B0156
S11303F099819817D9F38981882F90E0865D9E4F63
S11304002A81FC012083898180934A0181EC90E058
S113041021EC30E0F90120812062FC0120830000FE
S11304200F900F90DF91CF910895CF93DF9300D079
S1130430CDB7DEB79A8389830BC089819A819C01E9
S11304402F5F3F4F3A832983FC0180810E94EA0198
S113045089819A81FC018081882379F700000F90BB
S11304600F90DF91CF910895CF93DF93CDB7DEB78F
S113047060970FB6F894DEBF0FBECDBF988B8F8701
S11304801D821E82198227C08981882F90E02981CC
S1130490222F30E02C5F3E4FF90140819E01295FFD
S11304A03F4F820F931FFC0140838981882F90E086
S11304B02981222F30E04F855889240F351FF901F7
S11304C040819E01255F3F4F820F931FFC014083B3
S11304D089818F5F898389818430B0F21A8231C027
S11304E08A81882F90E02F853889820F931FFC0121
S11304F040818A81882F90E09E01295F3F4F820FBF
S1130500931FFC0180814817C9F48A81882F90E0E9
S11305109E01295F3F4F820F931F2FEFFC01208321
S11305208A81882F90E09E01255F3F4F820F931FA1
S11305302FEFFC0120838D818F5F8D838A818F5FF4
S11305408A838A81843060F21B824BC08B81882F1E
S113055090E09E01255F3F4F820F931FFC01808135
S11305608F3FE1F11C8237C08C81882F90E09E017F
S1130570295F3F4F820F931FFC0180818F3F41F120
S11305808C81882F90E09E01295F3F4F820F931F3B
S1130590FC0140818B81882F90E02F853889820F60
S11305A0931FFC018081481799F49C818B819817D3
S11305B079F08C81882F90E09E01295F3F4F820F54
S11305C0931F2FEFFC0120838E818F5F8E8306C0E3
S11305D08C818F5F8C838C81843030F28B818F5F30
S11305E08B838B81843008F4B1CF8D819E8160969A
S11305F00FB6F894DEBF0FBECDBFDF91CF91089543
S113060097FB072E16F4009407D077FD09D00E94BB
S1130610140307FC05D03EF4909581959F4F0895EF
S1130620709561957F4F0895AA1BBB1B51E107C0CC
S1130630AA1FBB1FA617B70710F0A61BB70B881F6E
S1130640991F5A95A9F780959095BC01CD010895FD
S11306508F929F92AF92BF92CF92DF92EF92FF92CE
S1130660CF93DF93EC01688179818A819B81611545
S113067071058105910521F464E279ED8BE597E03C
S11306802DE133EF41E050E00E94840349015A0117
S11306909B01AC01A7EAB1E40E94A3036B017C01B6
S11306A0ACEEB4EFA50194010E94B103DC01CB01CF
S11306B08C0D9D1DAE1DBF1DB7FF03C00197A10981
S11306C0B04888839983AA83BB839F77DF91CF91B6
S11306D0FF90EF90DF90CF90BF90AF909F908F905E
S11306E008950E942803089580E091E00E94280361
S11306F00895A0E0B0E08093000190930101A093DD
S11307000201B09303010895052E97FB1EF4009493
S11307100E949B0357FD07D00E94B60307FC03D039
S11307204EF40C949B0350954095309521953F4F82
S11307304F4F5F4F089590958095709561957F4FC9
S11307408F4F9F4F08950E94D803A59F900DB49F8B
S1130750900DA49F800D911D11240895B7FF0C9452
S1130760A3030E94A303821B930B0895A1E21A2EF4
S1130770AA1BBB1BFD010DC0AA1FBB1FEE1FFF1F41
S1130780A217B307E407F50720F0A21BB30BE40B91
S1130790F50B661F771F881F991F1A9469F76095D8
S11307A07095809590959B01AC01BD01CF01089592
S11307B0A29FB001B39FC001A39F700D811D11249E
S11307C0911DB29F700D811D1124911D0895F894FF
S10507D0FFCF55
S10B07D201000000FF0000001B
S9030000FC
